:100000000C94EA010C9452180C9407020C94070209
:100010000C9407020C9407020C9407020C9407023C
:100020000C9407020C9407020C94721D0C94461E4B
:100030000C94D1160C9407020C9407020C9407023E
:100040000C9407020C9407020C9407020C9407020C
:100050000C9407020C9474170C9407020C9407027A
:100060000C9407020C9407020C9407020C940702EC
:100070000C9407020C9407020C9407020C940702DC
:100080000C9407020C9407020C9407020C940702CC
:100090000C9407020C9407020C9407020C940702BC
:1000A0000C9407020C9407020C94070229001E000E
:1000B0001F002000210022002F00350014001A002C
:1000C0000800150017002D002B0004001600070083
:1000D00009000A004C00E1001D001B000600190089
:1000E00005002C00E000E300E200350421522C0062
:1000F0004C00460027002600250024002300300085
:100100003100130012000C0018001C002E003400F7
:1001100033000F000E000D000B002A00E500380030
:10012000370036001000110028004F005200510027
:100130005000225228002A0044003A003B003C00B4
:100140003D003E002F0235021E021F022002210246
:1001500022022D022B001E001F0020002100220081
:100160004C00E100230024002500260027002C007D
:10017000E000E300E200350401002C004C004500E3
:1001800043004200410040003F003002310227029C
:1001900026022502240223022E02340233020F001B
:1001A0000E000D000B002A00E5003802370236026F
:1001B0001000110028004D004B004E004A00235251
:1001C00028002A0044003A003B003C003D003E006D
:1001D0002F0235021E021F022002210222022D02DE
:1001E0002B001E001F002000210022004C00E10017
:1001F000230024002500260027002C00E000E30057
:10020000E200350423522C004C004500430042001C
:10021000410040003F003002310227022602250241
:10022000240223022E02340233020F000E000D00BE
:100230000B002A00E50038023702360210001100D8
:1002400028004D004B004E004A00010028002A0003
:1002500001000100037800780478037801000100B0
:10026000007C010001002F023002010001000100AA
:100270000100010001000100010001000100010076
:100280000100010001000100010001000100010066
:10029000010001000100010001000100A900AA0005
:1002A000A8000100010001004D004B004E004A0073
:1002B0000100361401004F005200510050000100AF
:1002C0000100010001000100010001000100010026
:1002D00001000100010001000100010020034500B0
:1002E000720067006F004400610073006800200026
:1002F00072006500760031002E00320000000C0311
:100300004F006D006B0062006400000004030904EC
:1003100009023B00020100A0FA09040000010301E8
:100320000100092111010001224400070581030891
:10033000000109040100010300000009211101006E
:100340000122320007058203200001120100020091
:10035000000008EDFE6060000101020001050109D6
:1003600080A101850319012AB700150126B7009560
:100370000175108100C0050C0901A1018504190156
:100380002AA002150126A002950175108100C00562
:10039000010906A101050719E029E71500250195C6
:1003A0000875018102950175088101050719002969
:1003B000FF150026FF009506750881000508190144
:1003C0002905150025019505750191029501750313
:1003D0009101C00011241FBECFEFDAE0DEBFCDBF18
:1003E00011E0A0E0B1E0EAECF1E402C005900D926A
:1003F000A63AB107D9F722E0A6EAB1E001C01D9202
:10040000A93AB207E1F70E94D0130C94A4200C94EF
:1004100000008430B8F46A30A8F4473098F450E013
:1004200097E0699F400D511D1124FA0196E4899FC0
:10043000E00DF11D1124EE0FFF1FE455FF4F8591D4
:100440009491089581E090E008950E940902089532
:1004500081E008950E942802089581E008950E9495
:10046000280208950E942F02089508950E943502DF
:100470000895A6E0B0E0EFE3F2E00C941420498385
:100480005A839E833091AD0189819A8131111AC0BE
:100490003E81332399F0222389F00E941508182FFA
:1004A000682F89819A810E94F10769817A81812F61
:1004B0000E94EB0E2696E3E00C9430200E94030885
:1004C000182FF3CF0E94150869817A81F1CFFC01C2
:1004D000262F4081518162817381848195810E94A0
:1004E00039020895CF93DF93EC0161E00E94670227
:1004F000BE010E942A02DF91CF910895CF93DF932E
:10050000EC0160E00E946702BE010E943602DF91AA
:10051000CF91089581E008950E948A020895CF93B3
:10052000C82F0E94C6068C2F0E948C022FEF84E3F6
:100530009CE0215080409040E1F700C00000CF9146
:10054000089581E00E948F020E949817089580E02C
:100550000E948F020E94A91708950F931F93CF93B3
:10056000DF938C0161E00E946702EC01B8010E94F8
:100570003202811106C080E0DF91CF911F910F916F
:100580000895B801CE010E946C158823A1F3B8012B
:10059000CE010E942C14882371F3B801CE010E9471
:1005A0000214882341F3F8018581882361F0C33068
:1005B000FCE7DF07E9F058F4C115ECE7DE07A9F026
:1005C000C130DC47B9F0C8010E942D02D5CFCB3530
:1005D0008CE7D807A9F0CC35ECE7DE0771F0CA3517
:1005E000DC4789F70E942C0CEECF0E94A102C3CFFA
:1005F0000E94340C0E94A702BECF0E94220CE3CFBF
:100600000E94300CE0CF0E94AE160E942A0308958B
:100610000E942E030E94B3160895089581E0089564
:100620000895CF93DF93D82F0E940E03C82F8823FD
:1006300019F08D2F0E9410038C2FDF91CF91089518
:100640000895CF93C82F0E940D038C2F0E94110391
:10065000CF91089580E00E94210308950E94B5156E
:100660000E9421030895CF930E94B515C82F809151
:10067000A8018C1779F0C093A8010E943D176093E0
:10068000A9017093AA018093AB019093AC018C2FC8
:100690000E942103CF910895ADE0B0E0E2E5F3E0E0
:1006A0000C941520488759876A877B878C879D879C
:1006B00091110E94620B1F8286E0FE013896DE01D6
:1006C000119601900D928A95E1F78D8181110DC0EF
:1006D00029813A814B815C816D817E818F810E946D
:1006E000AC0A2D96E2E00C943120CE0101960E94D6
:1006F00072028111EDCFF5CFFC012481213021F46C
:10070000808191810E9447080895CF93C82F882344
:10071000C9F08238C9F40E94C91581FD13C089E36C
:100720000E9471160E94D10B2FEF87EE93E02150AB
:1007300080409040E1F700C0000089E30E947916F4
:100740000E94D10BCF9108958338A1F40E94C9155E
:1007500080FDF8CF83E50E9471160E94D10B2FEF28
:1007600081EE94E0215080409040E1F700C000000D
:1007700083E5E4CF8438A1F40E94C91582FDE2CF5D
:1007800087E40E9471160E94D10B2FEF81EE94E056
:10079000215080409040E1F700C0000087E4CECFB8
:1007A0008CEF8C0F813A70F48C2F0E9436168823C0
:1007B00029F08C2F0E9479160E94D10B8C2F0E9459
:1007C0007116BECF80E28C0F883048F4C77081E08C
:1007D00001C0880FCA95EAF70E94450BB1CFEBE53F
:1007E000EC0FE33040F4F0E0E45AFE4F808190E0FB
:1007F0000E94D715A7CFC85ACB3108F0A3CFEC2F52
:10080000F0E0EE0FFF1FEA5DFE4F808191810E94B4
:10081000FC1598CF882309F44DC0823879F40E94E2
:10082000C91581FF47C089E30E9471160E94D10B50
:1008300089E30E9479160E94D10B0895833859F4F8
:100840000E94C91580FF36C083E50E9471160E9480
:10085000D10B83E5EECF843859F40E94C91582FF8D
:1008600029C087E40E9471160E94D10B87E4E1CF72
:100870009CEF980F913AE8F290E2980F983050F47C
:10088000877091E001C0990F8A95EAF7892F0E943D
:100890004B0BD1CF9BE5980F933028F490E080E08C
:1008A0000E94D7150895885A8B3120F490E080E09B
:1008B0000E94FC1508951F93CF93DF93182FEB012F
:1008C0000E948503209739F4812F0E940A04DF914A
:1008D000CF911F9108958FE99FE00197F1F700C034
:1008E00000002197EFCF70E060E0893311F460E5FC
:1008F00070E00E945B040895882321F00E94450B5C
:100900000E94D10B0895882321F00E944B0B0E9476
:10091000D10B0895B0E0A0E0E0E9F4E00C940E20E3
:100920006C01D62FC72FFC011581068102950F702F
:100930000E943B0BE82E8823F9F0E12E1123E1F011
:100940008C2F807F803461F080E28D0F883008F139
:100950008C2F807E803221F4D230D8F00023C9F071
:1009600080917D0282FF15C082E00E94F60B0E94FA
:100970003B0B91E0E82EE926BC2EB2949FE0B92211
:10098000FBE0FB15B8F1EB2DF0E0EA55FF4D0C94C0
:10099000FF1FE12CF1CF0C2F0F70C07F11F00295DB
:1009A000007F112399F0002359F080E28D0F8830E9
:1009B00010F0D11107C0802F0E94450B0E94D10B6F
:1009C0008D2F5AC0802F0E94550BF8CF8D2F0E947B
:1009D0000A04002379F080E28D0F883010F0D111E5
:1009E00004C0802F0E944B0B03C0802F0E945B0B22
:1009F0000E94D10BEB2DE850FF0B349720F40E949E
:100A0000B5150E942103EE2089F00E94370B80FD6E
:100A10000DC0F60115820E94310B0E944F07C601DE
:100A20000E9491060E94310B0E945F07CDB7DEB78E
:100A3000E9E00C942A202C2F2F70F22EC07FC032B8
:100A400019F0F29480EFF822DD2341F0D130D1F19A
:100A5000112309F444C00023F1F0B2CF80917D024C
:100A600082FD15C0112359F0FF2029F08F2D0E941F
:100A7000450B0E94D10B80E00E948503BBCF80E034
:100A80000E940A04FF2009F4B5CF8F2DABCF1123AC
:100A900069F0011104C08F2D0E947C04ABCF01309E
:100AA00009F0A8CF8F2D0E94790BA4CF0111A2CFFE
:100AB0008F2D0E9483048F2D0E94850B8F2D0E9405
:100AC000690B98CF112321F0063008F093CFE3CFC4
:100AD000053008F08FCF8F2D0E9483048BCF002329
:100AE000D1F3D93349F43FEF87EE93E031508040A2
:100AF0009040E1F700C000008D2F0E940A047ACFD9
:100B00008C2F86958695837069F0813009F072CFBD
:100B10008D2F9C2F9370111102C080E090E00E94F5
:100B2000FC1568CF8D2F9C2F9370111102C080E0AF
:100B300090E00E94D7155ECF8C2F8370A1F5111124
:100B400059CF4D2F429546954770440F440F2D2F96
:100B50002F7030E0042E02C0220F331F0A94E2F7F8
:100B600090E080E0D4FF09C08FE090E002C0880FE1
:100B7000991F4A95E2F780959095C695C695C370E2
:100B8000822B932BC23049F058F4C13019F00E94E7
:100B90001F0730CF0E9416072DCF0E9428072ACFAB
:100BA0000E94130727CF8695112311F08C2F817097
:100BB000882309F41FCF4D2F429546954770440F67
:100BC000440F2D2F2F7030E0042E02C0220F331F50
:100BD0000A94E2F790E080E0D4FF09C08FE090E053
:100BE00002C0880F991F4A95E2F780959095C695A7
:100BF000C695C370822B932BC23049F058F4C13094
:100C000019F00E948A07F6CE0E948107F3CE0E9457
:100C10009307F0CE0E943707EDCECF70112329F055
:100C20008C2F0E944F078D2F37CF8D2F0E9483046A
:100C30008C2F0E945F07DECED23F41F160F4D03F9F
:100C4000B9F0D13F81F0112309F443C00111B8CEAE
:100C50008C2F8F711FC0D33F01F1D43FA1F780913A
:100C60007D0282FD24C08C2F8F71112311F312C0DD
:100C7000112341F0053008F0BDCE8C2F8F710E94FA
:100C80007107B8CE063008F0B5CEF7CF8C2F8F7134
:100C90001111CFCF0E944F07ADCE112329F08C2F19
:100CA0008F710E944307A6CE0E943E07A3CE112358
:100CB00031F063E08C2F8F710E94D80B9BCE81E0C6
:100CC0000E94F60B023008F495CE82E00E94F60BEB
:100CD00091CE002359F0D93309F00ECFEFEFF7EEA4
:100CE00023E0E150F0402040E1F704CF8C2F8F71DA
:100CF000A0CF0F931F93CF93DF93EC01688179818D
:100D00008D810E9452088C010E949C070E9412074C
:100D1000B801CE010E948A04DF91CF911F910F91FB
:100D20000895CF93DF93EC018C81882399F0CE0155
:100D30000E94AD02811111C00E943B0B882351F02B
:100D40008D81882339F080917D0282FF03C082E08B
:100D50000E94F60BDF91CF910895CE010E94790693
:100D6000CE010E947E02F6CF90E080E00E94D7156F
:100D700090E080E00E94FC150E94620B0E94D10B63
:100D800008950E9481160E94B40608950E94520B95
:100D90000E94C106089592959F70963091F058F484
:100DA000925F9F70923058F4803F19F030F4883E83
:100DB00030F481E008959A5FF4CF843FD1F380E06E
:100DC0000895883EB0F3813FD1F7F3CFFC01248131
:100DD000222339F0808191810E9447080E94CB062E
:100DE000089580E00895A6E0B0E0E9EFF6E00C9405
:100DF00015202696E2E00C943120A7E0B0E0E3E075
:100E0000F7E00C9415202796E2E00C943120089529
:100E10000E94070708950E9408079093D5018093C8
:100E2000D401089508950E940B0708952091D401DC
:100E30003091D501822B932B0E940B0708952091AE
:100E4000D4013091D501822393230E940B0708958A
:100E50002091D4013091D501822793270E940B075E
:100E600008950E94070708950E94310708950E947F
:100E700034079093D3018093D201089590E080E0ED
:100E80000E943707089521E030E0A90102C0440F15
:100E9000551F8A95E2F7CA010E943707089521E09D
:100EA00030E002C0220F331F8A95E2F78091D20111
:100EB0009091D301822B932B0E943707089521E054
:100EC00030E002C0220F331F8A95E2F7209530955B
:100ED0008091D2019091D301822393230E943707FE
:100EE000089521E030E002C0220F331F8A95E2F717
:100EF0008091D2019091D301822793270E943707D6
:100F000008952091D2013091D301822B932B0E941E
:100F1000370708952091D2013091D3018223932382
:100F20000E94370708952091D2013091D301822782
:100F300093270E94370708950895262F277091E080
:100F400001C0990F2A95EAF723E0769567952A95CF
:100F5000E1F7660F771F660F771FFA01E60FF71F9D
:100F600050E040E0682F70E08191DF0111979B0114
:100F7000042E02C0369527950A94E2F72170219538
:100F80002827292328272C934F5F5F4F4430510592
:100F900059F70895A82FA77023E0969587952A956D
:100FA000E1F7880F991F880F991FFB01E80FF91FC0
:100FB00050E040E080E0219130E00A2E02C03695FA
:100FC00027950A94E2F721703327042E01C0220FDF
:100FD0000A94EAF7822B4F5F5F4F4430510559F76F
:100FE0000895262F9A3070F4873060F4682F70E0EF
:100FF00087E0989F600D711D11244EEA51E0822F09
:101000000E949D070895292F9A3068F4873058F47C
:1010100090E06EEA71E037E0239F800D911D11246E
:101020000E94CA07089580E00895B0E0A0E0EBE1D7
:10103000F8E00C940E207C010091D2011091D301B4
:101040008091D4019091D501082B192BCFE0D0E0ED
:10105000CC24C394D12CBC2EC6010C2E02C0880F08
:10106000991F0A94E2F780239123892B49F4219751
:1010700090F7B12C8B2DCDB7DEB7E9E00C942A2088
:10108000B7018C2F0E94F70E019789F3F3CFCF930E
:10109000DF93EC010E941508BE010E94F70EDF915C
:1010A000CF9108951F93CF93DF93EB019091AD0102
:1010B000992339F0CB010E944708DF91CF911F910E
:1010C0000895882369F0CB010E941508182F682F16
:1010D000CE010E94F107BE01812F0E94F70EEDCFD5
:1010E000CB010E940308182FF6CF1F93CF93DF93F5
:1010F000C091D60117E08091D7018C1304C0DF9115
:10110000CF911F910895D0E01C9FF0011D9FF00D1D
:101110001124E852FE4F2081318142815381648144
:10112000758186810E94FD062196C770E4CF2091CB
:1011300010023091110240911202509113026091FD
:10114000140270911502809116020E94FD06089506
:10115000CF93DF9380911602807F09F04DC080917C
:101160001502882309F448C0E091D6015091D701B7
:10117000C0911102D091100260911202709113027D
:1011800047E05E17C9F18E2F90E0E49FF001112433
:10119000E852FE4F2481222391F1489FF001499F9C
:1011A000F00D1124DF01A852BE4F11962C9111971A
:1011B0002C1325C02C912D1322C015962C91159718
:1011C00021111DC012962D913C91261B370B2837FB
:1011D0003105A8F4809116028F7080618093160209
:1011E000E252FE4F80818F708061808380E192E0C7
:1011F0000E9491060E947508DF91CF910895FC012D
:101200003196E770BECF482F2091D6019091D7013B
:1012100057E0291302C080E0089530E0529FF001AA
:10122000539FF00D1124E852FE4F8181681306C0D0
:101230008081481303C085818111EECF2F5F3F4F1E
:101240002770E7CFA4E1B0E0E8E2F9E00C940B20CE
:101250008C0186E0F801DE011F9601900D928A95BF
:10126000E1F7F8018481E58090E1A92E92E0B92EA2
:101270009091140291111FC08823D1F0EE20A9F0A3
:10128000C8010E94E606F82E882379F087E0F8016D
:10129000D50101900D928A95E1F7C5010E947C036A
:1012A0000E94A8080E9497085FC0C8010E9491068A
:1012B000FF24F39459C0C080D18082809380F09045
:1012C00015022091120230911302A401421B530B0C
:1012D000FF2009F4F9C04837510508F0A7C088235A
:1012E00009F442C09091110280911602282F207FAC
:1012F00009F05CC09D1116C090911002C91212C075
:10130000E1104EC08F708061809316020E94970892
:1013100080E192E00E94910680911602F801868396
:10132000F12C22C0E1103CC06D2D8C2D0E940309D0
:101330006D2D8C2D0E940309E82E8111F1CFCF86EF
:10134000D88A8F8598890E944708292F22952F7067
:10135000243078F49F702230A8F09923B9F0F80176
:101360009681907F99F4FE2C8F2D6496ECE00C947E
:1013700027202A5F2F70223068F0C8010E94910652
:10138000EF2CF1CF992311F0882369F3805E883028
:1013900050F3F3CF803F38F3815F833070F7E3CFB2
:1013A00080911602816080931602BACF9D1113C0FE
:1013B00090911002C9120FC0E1100DC08683C801C0
:1013C0000E94910687E0F801A0E1B2E001900D9241
:1013D0008A95E1F767CFC8010E94E606882309F4E1
:1013E00064CFEE2009F461CF80911602803288F03C
:1013F0002091100230911102398728879B868A86B6
:10140000909114029C871D868E87CE0108960E94BB
:10141000910687E0F801A0E1B2E001900D928A9573
:10142000E1F70E94A8080E94970842CF9091160207
:10143000292F207FA1F4682D9A8A898AA6017A89AA
:101440009E2D0E94F30680E192E00E94910687E0C3
:10145000F50111928A95E9F70E94970861CF8823D8
:1014600009F482CF809111028D1110C08091100279
:10147000C8120CC0E1100AC09683C8010E949106F0
:1014800087E0F50111928A95E9F76ECFC8010E94B5
:10149000E606882309F409CFEE2009F406CF8091EF
:1014A0001602803208F4B5CF20911002309111025B
:1014B0003A8329839C828B82909114029D831E82A1
:1014C0008F83CE010196A3CF48375105B8F5882305
:1014D00009F4EECEFE2CEE2009F4E7CE8091110245
:1014E0008D111EC080911002C8121AC08091160280
:1014F00080FD0DC0982F907F51F08683903F09F4B6
:101500005ECF982F907F905F8F70892B57CF87E0A9
:10151000F801A0E1B2E001900D928A95E1F724CFA5
:10152000C8010E94E606811174CF80911602816085
:1015300080931602C8010E94910616CF682D9A8AE0
:10154000898AA6017A899E2D0E94F30687E0F5011B
:1015500011928A95E9F7A6CEAEE0B0E0E2EBFAE0B0
:101560000C941420288739874A875B876C877D878E
:101570008E87CE0108960E9422098823B1F06C85DF
:10158000662341F0288539854A855B857D858E8572
:101590000E94FD0617E08091D6019091D701891332
:1015A0003DC02E96E3E00C94302087E0FE01389693
:1015B000DE01119601900D928A95E1F78C858823C2
:1015C00049F32091D70130E0C9010196877099272E
:1015D0004091D6014817190699F097E0929FD001E3
:1015E000939FB00D1124A852BE4FFE013196019079
:1015F0000D929A95E1F78093D7010E947508CACFA2
:101600000E94C6061092D7011092D60187E0E0E151
:10161000F2E0DF011D928A95E9F7BCCF819FC001FE
:10162000112488529E4F0E942209882309F4B9CFC1
:10163000E091D6011E9FF0011124E852FE4F208157
:101640003181428153816481758186810E94FD06CA
:101650008091D60190E00196877099278093D601FA
:101660009ACF80911F0286958695869508958091E0
:101670001F028770089590911F02977081E009F40E
:1016800080E0089580912B02089590912B02892B80
:1016900080932B020895809590912B02982390932C
:1016A0002B02089510922B02089590912A02892B03
:1016B00080932A020895809590912A02982390930E
:1016C0002A02089510922A02089508950E94650B37
:1016D000089590912002292F282331F080958923A5
:1016E000809320020E94660B089508950E94750B56
:1016F000089590912102292F2823281729F0982B4B
:10170000909321020E94760B089590912102292F37
:10171000282331F080958923809321020E94760B43
:10172000089580912102882329F01092210280E0FF
:101730000E94760B08950F931F93CF93DF93009130
:10174000000110910101C0912B0280912A02C82B47
:1017500080912102882331F0C82B0E94211681112B
:101760000E94910BF801C083C0910001D09101014A
:1017700048E050E067E172E0CE010E943C20892BF6
:1017800059F088E0FE01A7E1B2E001900D928A9540
:10179000E1F7CE010E94CC15DF91CF911F910F91FF
:1017A00008950E949B0B089508950E94D40B0895FC
:1017B00090917D0292FF11C098E0899F90011124C1
:1017C000622B60931F020E944F0780911F02869533
:1017D000869586950E94D50B08950E944F0708951F
:1017E00010921F0280E00E94D50B089590911F0275
:1017F0008095892380931F02282F277069F4891709
:1018000059F090917D0292FF07C086958695869546
:101810000E945F070E94F00B089590917D0292FB59
:10182000222720F9281769F080FB92F990937D0216
:1018300080917C0290917D020E94550C82E00E9472
:10184000F60B089580917D0282FB882780F991E054
:1018500089270E940D0C089581E00E940D0C0895C7
:1018600080E00E940D0C08956FEF7FEF90E080E024
:101870000E948E20089590E080E00E945A2021E08E
:10188000853E9E4F09F020E0822F089582E090E08F
:101890000E945220089583E090E00E945220089513
:1018A00084E090E00E945A200895BC0184E090E01A
:1018B0000E948E200895AB01BC018FE090E00E9451
:1018C00082200895AB01BC0183E190E00E94822058
:1018D000089560E070E0CB010E94620C089560E022
:1018E00070E0CB010E945B0C0E94690C0895A8E097
:1018F000B0E0EDE7FCE00C94152065EE7EEF90E0A3
:1019000080E00E948E2060E082E090E00E947020E3
:1019100081E090E09093D5018093D40161E083E071
:1019200090E00E94702060E074E184E090E00E940A
:101930008E2060E086E090E00E94702060E087E00A
:1019400090E00E94702040E050E0BA0188E090E012
:101950000E94822060E083E290E00E94702060E0BC
:101960008CE090E00E94702060E08DE090E00E94AA
:10197000702019821A821B821C821D821E821F8285
:10198000188648E050E067E170E0CE0101960E94C1
:10199000602040E050E0BA018FE190E00E94822098
:1019A0000E946F0C2896E2E00C9431200E94770C84
:1019B0000895682F8EE090E00E9470200895A6E0C0
:1019C000B0E0E5EEFCE00C9413200E9431178C018E
:1019D00080912C0290912D028017910781F019823D
:1019E0001A820E943117682F49815A81792F80E02D
:1019F00090E00E944C0310932D0200932C02269637
:101A0000E4E00C942F200E94131060933C0270932A
:101A10003D0280933E0290933F02609338027093A0
:101A2000390280933A0290933B02089508950895F5
:101A30000E94160D089508950E941B0D089581E0DF
:101A400008958DE290E10E94E5130E94170D0E9417
:101A5000180D08950E94E4110895089508950E94B4
:101A60002D0D0E942E0D08950E943B0C811102C085
:101A70000E94D60C0E94460C809340020E94500C9B
:101A800090937D0280937C020E944B0C90E00E9418
:101A900013078091D2019091D3010E9434070895D9
:101AA0000E9428170E94ED0F0E94EA110E943B112C
:101AB0000E94340D0E9420030E94EA130E94FC1130
:101AC0000E941C0D0895A6E0B0E0E9E6FDE00C944C
:101AD0000C200E941F0D81110AC00E94DF0C0E9481
:101AE000E4110E9433032696EBE00C9428200E9418
:101AF0005E118EE2A82E82E0B82E750110E0F7018B
:101B000001917F01812F0E9437101F5F1A3009F465
:101B100041C00817A1F38091400281FD0E943D1051
:101B20000E942A0DC82E10E099249394812F0E94C0
:101B30003710082FF50181915F01081729F1F12C69
:101B4000EE24E394D02ED8268D2D8E21A9F0CC2022
:101B500099F0F9821A830E9431179C838B839D82AE
:101B600091E0802F8E2109F490E049815A816B81A8
:101B70007C818D810E944C03F394EE0CF7E0FF1200
:101B8000E3CFF501319700831F5F1A3079F60E9489
:101B9000030DA5CF0813BFCFA0CF1F93CF93DF9323
:101BA0000E94FC0EEC01C11580E5D807F0F5C115C7
:101BB00080E4D80708F09CC0C03ED10520F5CD3C9C
:101BC000D10508F082C0C83AD10578F4C53AD105EC
:101BD00008F073C0C130D10519F1209709F1C43064
:101BE000D105F0F4D0E0C0E01BC0C33CD105D0F774
:101BF000C85AD0E0CC0FDD1FC15ADE4F0990D88102
:101C0000C02DD4640DC0C11580E2D80708F0D1C042
:101C1000C11581E0D80708F05AC0C83ED10510F7B9
:101C2000CE01DF91CF911F910895C03682E5D8078C
:101C300018F5C03482E5D80708F06BC0C03282E5E1
:101C4000D80708F05FC0C11582E5D80708F497C02F
:101C50002C2F2695269580E2289F900111248C2F09
:101C60008370C1E0D0E002C0CC0FDD1F8A95E2F79F
:101C7000C22BD32BDD68D4CFC03A82E5D80760F4FD
:101C8000C03882E5D80708F459C0CF71D0E0DC2F06
:101C9000CC27C46FD06AC4CFC03C82E5D80708F413
:101CA00062C0C03E82E5D80708F09CCFDC2FCC276D
:101CB000CC27DF71C06FD06AB3CFC55AD0E0CB5606
:101CC000DE4FC881D0E0D064ABCFD065A9CF8D2FD7
:101CD0000E949E0F182FCE0199270E94FC0EC12F43
:101CE000D0E0DC2FCC27CC27DF71C82BD92B98CFA5
:101CF000CE0199270E94FC0ECC27DF70C82BD92B70
:101D0000D06A8ECFCF71D0E0DC2FCC27C16FD06AE4
:101D100087CF2C2F26952695277080E2289F90014B
:101D200011248C2F8370C1E0D0E002C0CC0FDD1FE6
:101D30008A95E2F7C22BD32BDC6872CF2C2F269525
:101D40002695277080E2289F900111248C2F8370A4
:101D5000C1E0D0E002C0CC0FDD1F8A95E2F7C22BB4
:101D6000D32BDA685DCF8C2F8F710E949E0FC82F06
:101D7000D0E0DC2FCC27CC27DF71D06251CF8C2F65
:101D80008F710E949E0F55E0D695C7955A95E1F741
:101D9000CF70D0E0DC2FCC27282F30E084FF05C0A7
:101DA00044E0220F331F4A95E1F7C22BD32BD069B1
:101DB00037CF8D2F8F710E949E0F182FCE0199273C
:101DC0000E94FC0EC12FD0E0DC2FCC27CC27DF7186
:101DD000C82BD92BD2CF462F7A3030F4673020F47D
:101DE000672F0E942502089590E080E008950E94E8
:101DF000EB0E0E94CD0D089582389105B9F1B0F433
:101E00008133910509F47DC048F48932910509F4C4
:101E10006DC08A32910509F47BC008958533910520
:101E200009F45FC08933910509F10895833E910556
:101E3000D9F138F4803E910529F1823E910579F17E
:101E40000895863E9105D9F1873E910509F43EC07B
:101E5000843E910541F520917D0221FF24C08091AF
:101E60007C0284FD19C087EE90E0089520917C02E9
:101E7000237009F05AC020917D0223FF14C089E22B
:101E800090E0089520917C0220FD38C030917D02C1
:101E900030FF09C024FF43C090E080E00895209106
:101EA0007C0222FDF7CF089520917C0222FD3AC0EA
:101EB00030917D0230FD39C024FFF5CFEDCF209168
:101EC0007C0223FFF0CF24FDE7CFCDCF20917C0211
:101ED00023FD2EC030917D0231FFEECF84EE90E0E5
:101EE000089520917C0225FFDECFC9CF20917C028E
:101EF00025FD21C020917D0223FFD5CF89E390E00D
:101F0000D2CF20917C0226FFCECF8AE290E00895C6
:101F100020917C0226FFC7CF81E390E0089583EEF5
:101F200090E0089582EE90E0089580EE90E00895AC
:101F300086EE90E0089585E390E0089590917C020C
:101F400092FF10C041E0282F2471243009F040E0B6
:101F500031E0282F2871283009F030E0431711F0C4
:101F60002CE0822793FF10C041E0282F24712431F8
:101F700009F040E031E0282F2871283109F030E0E5
:101F8000431711F02CE0822730917D0230FF10C002
:101F900051E0282F2171213009F050E041E0282F35
:101FA0002871283009F040E0541711F029E0822709
:101FB00031FF10C041E0282F2171213109F040E0AC
:101FC00031E0282F2871283109F030E0431711F053
:101FD00029E0822794FD877E089510927E02109258
:101FE0007F0210928002109281020895CF92DF92B8
:101FF000EF92FF926B017C010E94E41181110EC0EF
:102000000E943D17C61AD70AE80AF90AC0927E0252
:10201000D0927F02E0928002F0928102FF90EF90D6
:10202000DF90CF9008950F931F930E94E4118823AF
:1020300029F00E943D171F910F9108950E943D17AE
:1020400000917E0210917F022091800230918102E6
:10205000600F711F821F931FEECF80E008950895D7
:102060000E942F10089508950E9433100895E82FBC
:10207000F0E0E357FD4F80810895089580EA8A9546
:10208000F1F7089500C008950E943E100895089544
:102090000E9447100895A5E0B0E0E1E5F0E10C945E
:1020A00011200E94E411F82E60919702882309F410
:1020B00040C085E0E82E8E010F5F1F4FF8018E2D86
:1020C00011928A95E9F7862F90E0B80183579D4FCA
:1020D0000E940A128823B9F08091820290E045E0C4
:1020E00050E0B80183579D4F0E943C2021E020938F
:1020F0004102892B91F4F12C0E9434108F2D2596EA
:10210000E6E00C942D20809141028823A1F3F80190
:102110001192EA94E9F710924102A0918202B0E094
:10212000A357BD4F85E0F80101900D928A95E1F724
:10213000E3CF70E063577D4F8091820290E0835738
:102140009D4F0E9491120E944810D8CFF894E82F1A
:10215000E295EF70F0E031A1282F2F7081E090E040
:1021600001C0880F2A95EAF7982F9095932391A3A1
:1021700092A1892B82A3789408950F931F93CF93F4
:10218000DF93CFE9D1E089918F3F11F00E94A61033
:1021900081E0C43AD807B9F7C8E9D1E00FE911E006
:1021A00089918F3F11F00E94A6100C171D07C1F7EF
:1021B000DF91CF911F910F910895B0E0A0E0E3EE81
:1021C000F0E10C940F20EC01D62E062F10E0C80190
:1021D00081569E4F7C01FC0180818F3F09F444C0F1
:1021E000F894E82FE295EF70F0E091A18F7021E074
:1021F00030E001C0220F8A95EAF7892F822B81A354
:1022000082A12095282322A378940E944210E8E915
:10221000F1E031E0C12C21912F3F59F1A22FA2957D
:10222000AF70B0E090968C9190E02F7002C09595C1
:1022300087952A95E2F780FD1CC0832FC82A330FAB
:1022400081E0EF39F80739F7F70180818F3F11F00E
:102250000E94A61061E0C11001C060E08D2D0E94B7
:102260004410C00FD11FC882CDB7DEB7E8E00C9490
:102270002B2080E0E3CF809102018091020195E064
:10228000811190E09093970285E0891B80938202F0
:102290000E94BD108AE0EDE8F2E0DF01982F1D9268
:1022A0009A95E9F7E3E8F2E0DF011D928A95E9F7F4
:1022B00085E00E949C110E9430100895AAE0B0E0D1
:1022C000E4E6F1E10C9412208E010F5F1F4F8AE0CB
:1022D000F80111928A95E9F7F12C6F2DC8010E943F
:1022E000DD10F394F5E0FF12F8CF4AE050E0B801BA
:1022F00083E892E00E943C2021E0009709F420E06E
:10230000892B41F08AE0F801A3E8B2E001900D9238
:102310008A95E1F76091970270E063577D4F45E041
:1023200083E892E00E949D11182F0E944B10812B90
:102330002A96E5E00C942E200895B0E0A0E0E3EAB0
:10234000F1E10C940F206C017B01042FC22F22239A
:1023500079F081E0809344020E9431179093430208
:102360008093420280E0CDB7DEB7E8E00C942B20EA
:10237000D0914402DD23B1F3809142029091430257
:102380000E944917059770F310E0A801B601C70134
:102390000E943C20892B31F0A801B601C7010E94A0
:1023A0004920CD2F109244028C2FDDCFCF930E9475
:1023B000F21FC82F811102C00E94ED1F8C2FCF91F8
:1023C00008958091480208958091470208950E94DF
:1023D000E41108950E94D611809347020E94E711EC
:1023E000809348020E94E111809302010E94E4114F
:1023F00081110E94401208950E94E411811102C0CF
:102400000E944312089581E0909149029A3008F0A9
:1024100080E008950F931F93CF93DF93EC018B011E
:10242000809149028A30B8F4B801CE010E948E1220
:10243000C82F811122C0809149028F3FB9F40E94B8
:10244000311790934602809345028C2FDF91CF91F4
:102450001F910F91089580914502909146020E942C
:102460004917843F914000F7C0E0EFCF8F5F809322
:1024700049028A3020F7C1E0E8CF10924902E5CF47
:102480000E940C1808950E940F180895B0E0A0E073
:10249000ECE4F2E10C9410207901C82F880FDD0BD9
:1024A00041155105A9F0FE0193E0EE0FFF1F9A952B
:1024B000E1F7ED5FFE4F81819281865B9D4F208128
:1024C00030E04217530708F49A01A9010E944920FD
:1024D000CE010E94F818D82E8823D1F001151105DD
:1024E000B9F083E0CC0FDD1F8A95E1F7FE01ED5FC7
:1024F000FE4F438150E00417150708F4A801CD5F93
:10250000DE4F6C817D81665B7D4FC7010E94492053
:102510008D2DCDB7DEB7E7E00C942C200E94801300
:1025200008950E9497130895A4E0B0E0EAE9F2E16B
:102530000C94132060916102709162028091630299
:10254000909164020E94581711E06436710581056C
:10255000910518F10E9413106E5F7F4F8F4F9F4FB0
:1025600069837A838B839C8310E000E030E020E075
:1025700044E050E0BE016F5F7F4F82E00E94461250
:10258000182F882351F00E943D17609361027093C9
:1025900062028093630290936402812F2496E4E0A8
:1025A0000C942F20B0E0A0E0E8EDF2E10C940D20B7
:1025B0007C015B016A010E94031201E010E08823A4
:1025C00011F00AE010E0C1E0D0E0B501C701F6016A
:1025D0000995811104C021960C171D072CF4CDB765
:1025E000DEB7EAE00C942920CC9F9001CD9F300DFE
:1025F000300D112490E080E045E34A95F1F70000AA
:10260000019682179307C1F7E0CFA6E0B0E0EBE0B8
:10261000F3E10C940D207B01C090A401D090A501A2
:1026200001E010E09E012A5F3F4F50E040E070E083
:1026300060E080E00E944612182F882309F448C009
:1026400056018FEFA81AB80A60915D0270915E0280
:1026500080915F02909160020E9458176436710564
:102660008105910568F105E010E09E012F5F3F4F65
:1026700050E040E070E060E081E00E944612D82E19
:1026800065E070E0C5010E94EB1311E09E81981394
:1026900010E01D2141F10E943D1760935D0270938F
:1026A0005E0280935F029093600285E0FE013196A6
:1026B000A8E5B2E001900D928A95E1F711E013C010
:1026C00065E070E0C5010E94EB139E818913CBCFBA
:1026D00085E0F6013196DE01119601900D928A9502
:1026E000E1F71111E2CF85E0E8E5F2E0D7010190D2
:1026F0000D928A95E1F7812F2696EAE00C94292025
:102700000F931F93CF93DF93EC018B0145E053E1CF
:102710000E94D212882331F044E952E1B801CE017F
:102720000E94D212DF91CF911F910F9108950F93C4
:102730001F93CF93DF93C091A401D091A501CE0147
:10274000019625E0FB01DC0101900D922A95E1F74D
:1027500065E070E00E94EB1388836E817F8188853D
:1027600099850091540210915502209156023091A2
:102770005702601771078207930751F06093540264
:102780007093550280935602909357020E94F60F61
:10279000DF91CF911F910F9108950E94630D0895CD
:1027A0000E94CA160E94A91A0E94210D0E94C31AF3
:1027B0000E94500D0E94D01A0E94D51A0E94CD137B
:1027C0000E94EF1A0E942F0DF7CF9093A7018093DC
:1027D000A60108950895FC01680F791F8FEF91E31A
:1027E000E617F70709F408952191822728E030E0E1
:1027F00087FF06C0880F892721503109C9F7F0CF1C
:10280000880FFACFCF93DF93EB0186319C4711F508
:102810000E94420B9D81992399F08A7A91E009F4F4
:1028200090E090936502811109C089E20E947116BF
:102830000E94D10B80E0DF91CF91089585E3F6CF20
:1028400080916502811104C089E20E947916F0CF5F
:1028500085E3FBCF81E0EFCFCF93DF93EC01FB016A
:102860008581882309F4D2C09E0130572332310577
:1028700008F0B2C00E94500C90937D0280937C02BD
:10288000FE01E150F047E232F10520F4EE54FF4D35
:102890000C94FF1F80917C02816080937C0293C026
:1028A00080917D02886080937D028DC080917C0242
:1028B0008260F3CF80917C028460EFCF80917C02B4
:1028C0008860EBCF80917D028160EDCF80917D02A9
:1028D0008260E9CF80917C028061DFCF80917C02B1
:1028E0008062DBCF80917C028064D7CF0E94C606D5
:1028F00080917C028068D1CF80917C028C60CDCFAA
:1029000080917D028360CFCF80917C028E7FC5CF86
:1029100080917D02877FC7CF80917C028D7FBDCF64
:1029200080917C028B7FB9CF80917C02877FB5CF6D
:1029300080917D028E7FB7CF80917D028D7FB3CF56
:1029400080917C028F7EA9CF80917C028F7DA5CF64
:1029500080917C028F7BA1CF0E94C60680917C0271
:102960008F779BCF80917C02837F97CF80917D0270
:102970008C7F99CF80917C0282FB992790F921E08E
:10298000922790FB82F990FB83F987CF80917D029B
:10299000982F909591708E7F892B90FB81F983CF32
:1029A00090917C02892F8F7B96FF806476CF0E9466
:1029B000C60690917C02892F97FB87F980586DCFCE
:1029C00081E00E94D90C80917C0290917D020E944E
:1029D000550C0E94C60680E0DF91CF91089580E0FB
:1029E000F0CF90917C02892F8F7E94FF806155CF2C
:1029F00090917C02892F8E7F90FF81604ECF9091C5
:102A00007D02892F877F93FF88604DCF81E0E4CFDF
:102A10000F931F93CF93DF93C42FD22FFC01858197
:102A20008823C9F0409368020E943117909367028F
:102A30008093660280E28C0F883040F4C77081E09A
:102A400001C0880FCA95EAF70E947C04DF91CF91FC
:102A50001F910F91089510916802141332C0809154
:102A60006602909167020E9449178837910548F5E0
:102A7000C0E2CD0F1D17B9F080E2810F883040F41D
:102A8000177081E001C0880F1A95EAF70E9483044D
:102A9000C83048F481E09D2F977001C0880F9A9547
:102AA000EAF70E947C04802F0E947304C83070F6FD
:102AB000D77081E001C0880FDA95EAF70E9483049D
:102AC000C5CF80E28C0F883008F6C77081E001C066
:102AD000880FCA95EAF7F2CF0F93DB0188519C4724
:102AE00087309105A0F5FC01EC52FF4D0C94FF1FBF
:102AF00006E221EE41EE6AE17CE7CD010E94081575
:102B000080E00F91089507E225EE45EE6BE17CE74A
:102B1000F4CF06E221EE40EE68E17CE7EECF07E27B
:102B200025EE44EE69E17CE7E8CF06E221EE42EED5
:102B30006CE17CE7E2CF07E225EE46EE6DE17CE753
:102B4000DCCF08E221E045EE6EE17CE7D6CF1596BA
:102B50008C91882319F010926802D3CF81E0D1CFF5
:102B600090936F0280936E0208950E94E411811188
:102B700003C0809169020895E0916E02F0916F02A6
:102B8000309729F00190F081E02D0995089580E0BB
:102B900008950E94B5150895E0916E02F0916F02BC
:102BA000309721F00280F381E02D09950895A3E08C
:102BB000B0E0EDEDF5E10C94152020916C02309120
:102BC0006D0228173907A1F090936D0280936C0273
:102BD000E0916E02F0916F02309751F023E029836B
:102BE0009B838A830084F185E02DCE0101960995AF
:102BF0002396E2E00C943120A3E0B0E0E2E0F6E1BD
:102C00000C94152020916A0230916B022817390725
:102C1000A1F090936B0280936A02E0916E02F091B2
:102C20006F02309751F024E029839B838A830084CC
:102C3000F185E02DCE01019609952396E2E00C94F2
:102C4000312040910001509101019A012E5F3F4FC8
:102C5000485F5F4F80E02417350709F40895F901B4
:102C600091919F019923B9F38F5FF5CF882371F07C
:102C70002091000130910101F9013296285F3F4F08
:102C80009191981729F0E217F307D1F780E00895A2
:102C900081E008959C01FC0132969FEF80E0419114
:102CA000461751F09F3F19F4411101C0982F8F5FD3
:102CB0008630A9F79F3F09F40895290F311D97FD2C
:102CC0003A95F90162830895FC01329608962191A4
:102CD000261303C0DF0111971C92E817F907B9F713
:102CE0000895682F80910001909101010E944A1679
:102CF0000895682F80910001909101010E9464164F
:102D00000895E0910001F0910101329686E0DF0123
:102D10001D928A95E9F7089508950E948C160895EA
:102D2000811106C081E0809370020E948D16089583
:102D300082E0F9CF83E0809370020E948D1608959F
:102D40000E949016089581E0809370020E948D1673
:102D500008950E94A3160895089508950E94AD163F
:102D60000895089508950E94AC160895CF930E9487
:102D7000B1160E945E110E94B216C0E08C2F0E9414
:102D80003710811105C0CF5FCA30C1F7CF910895C8
:102D900081E0FCCF85B7806885BF85B7806885BF37
:102DA00008951F921FB61F9211248F939F93AF9384
:102DB000BF9380917102811113C08091980290910C
:102DC0009902A0919A02B0919B024196A11DB11D5A
:102DD0008093980290939902A0939A02B0939B02D9
:102DE000BF91AF919F918F911F901FBE1F9018951B
:102DF0008091A002843031F10E940303109271028D
:102E000088E190E020E40FB6F894A89580936000E4
:102E10000FBE2093600083B7817F846083BF83B738
:102E2000816083BF7894889583B78E7F83BF0FB608
:102E3000F894A8958091600088618093600010925A
:102E400060000FBE08950E94C6060E940803089500
:102E500082E084BD93E095BD9AEF97BD80936E00AC
:102E600008952FB7F8948091980290919902A091BB
:102E70009A02B0919B022FBF08952FB7F8946091EA
:102E800098027091990280919A0290919B022FBFB3
:102E900008959C014FB7F8948091980290919902FF
:102EA000A0919A02B0919B024FBF821B930B089591
:102EB000CF92DF92EF92FF922FB7F894C0909802D2
:102EC000D0909902E0909A02F0909B022FBFA70148
:102ED0009601261B370B480B590BCA01B901FF900D
:102EE000EF90DF90CF90089578941F921FB61F92B5
:102EF00011248F939F93AF93BF93809198029091E9
:102F00009902A0919A02B0919B020196A11DB11D58
:102F10008093980290939902A0939A02B0939B0297
:102F2000BF91AF919F918F911F901FBE1F901895D9
:102F300087E797E7909301088093000888E19AE07B
:102F40000FB6F894A895809360000FBE9093600030
:102F5000FFCF88E19AE00FB6F894A89580936000BF
:102F60000FBE90936000FFCF8EE1489B02C081505E
:102F7000E1F7489BFECF0895589880E28A95F1F7D3
:102F8000589A0895FC013BE03A95F1F798E020E06B
:102F900080E031E040E14A95F1F7880F489B02C09C
:102FA0008160232742E04A95F1F7000040E14A950D
:102FB000F1F7915079F790E19A95F1F799B132E0F4
:102FC0003A95F1F7000040E14A95F1F791709227A8
:102FD0002081920F90830895A1E0B0E0E2EFF7E145
:102FE0000C94112019828C017C01E60EF11C0E1547
:102FF0001F0541F481E09981911180E02196E6E07E
:103000000C942D200E94B417CE0101960E94C21785
:10301000F80181938F01EBCF509A589A08955098F8
:10302000589AE89AE9E6F0E080818C7F80830895E1
:103030006150770B91E001C0990F6A95EAF720E0A3
:1030400031E0911108C0222391F0589A80E28A95CC
:10305000F1F758980895492F482339F0589A2327B3
:1030600040E24A95F1F79695ECCF5898F9CF5898E9
:10307000EDCFFF920F931F93CF93DF93EC018C0161
:10308000060F111DC017D10729F4CDB7DEB7E5E053
:103090000C942E20F9900E94BC1768E08F2D0E949E
:1030A0001818F0CF1F920F920FB60F9211240F93A2
:1030B0001F932F933F934F935F936F937F938F93C0
:1030C0009F93AF93BF93EF93FF93CF93DF930F92B1
:1030D000CDB7DEB719820E94B417CE0101960E94C7
:1030E000C217082F069506950695282F229525705C
:1030F000902F9570290F922F937026952695920FF9
:10310000982797708981982B09F05CC0043008F0EB
:1031100059C080E18A95F1F7589A509A82E08A95D1
:10312000F1F700C0589888E0089F80011124D80169
:10313000AD5FBE4F1696ED91FC9117973097A9F0B1
:103140006091A4017091A50114962D913C91159761
:10315000260F371F11968D919C911297680F791F3A
:1031600013964C9113978C910995F801ED5FFE4FE2
:103170006381662351F02091A4013091A5018481DF
:103180009581820F931F0E9439180E94BC1780E11D
:103190008A95F1F758985098589A80E18A95F1F7F6
:1031A000F801ED5FFE4F6081662351F02091A4018C
:1031B0003091A50181819281820F931F0E94EC17AB
:1031C0000E94B4170F90DF91CF91FF91EF91BF91C3
:1031D000AF919F918F917F916F915F914F913F91AF
:1031E0002F911F910F910F900FBE0F901F90189568
:1031F0000F931F93CF93DF93EC0104970CF04CC017
:10320000F894509A589885E08A95F1F700009C2F21
:10321000969595708C2F8570980F892F8370969551
:10322000969523E0CC0FDD1F2A95E1F7980F8E01CC
:10323000092B0E94BC1700C068E0802F0E9418185C
:1032400080E18A95F1F75098589A489B1EC087E014
:1032500090E048991CC0FE01ED5FFE4F638166233C
:10326000F9F02091A4013091A50184819581820F0C
:10327000931F0E94EC17811113C0509A589A7894AA
:10328000DF91CF911F910F91089500C0DECF01977C
:1032900029F4509A589A789480E0F2CF00C0D9CFA0
:1032A0000E94B41780E28A95F1F75898509A80E10D
:1032B0008A95F1F7CD5FDE4F6881662351F020914A
:1032C000A4013091A50189819A81820F931F0E94E8
:1032D00039180E94BC17789481E0D2CF80917A028D
:1032E0000895089508959B01BA019091A002943029
:1032F000E9F48F708093E9009FEF8091E80091508E
:1033000085FD06C085ED8A95F1F700009111F5CF96
:103310008091E80085FF0AC050E040E0C9010E94AA
:10332000661B8091E8008E778093E800089543E063
:1033300050E0BC0182E00E9473190895CF93DF939F
:10334000EC0148E050E0BC0181E00E94731988E084
:10335000FE01A2E7B2E001900D928A95E1F7DF91BC
:10336000CF91089580919F02811109C00E94F61C9F
:103370000E94531D8091E20084608093E2000895D2
:1033800010929F0208950E94A316089560919C02D6
:1033900081E0611101C080E00E949A160895909129
:1033A000A00281E0943009F080E060919C020E94CC
:1033B000A016089542E061EC81E00E94721C42E296
:1033C00061EC82E00E94721C9091A00281E0943036
:1033D00009F080E060919C020E949016089580910F
:1033E000A202833009F461C030F48130D1F182301F
:1033F00009F49EC008958A3009F48AC08B3009F41C
:103400006FC0893009F050C08091A102813209F06B
:103410004BC08091A5029091A602029708F044C08B
:103420008091E800877F8093E8008091E80082FF28
:1034300037C09091F3008091F200029731F48091AF
:10344000F100813011F0863021F48091F1008093F9
:103450007A028091E8008B778093E8000E94A61C96
:1034600023C08091A102813AF9F48091E800877F1E
:103470008093E8008091A5029091A602892B61F4C7
:1034800068E082E792E070E00E94B51B8091E8005E
:103490008B778093E800089560E090E080E0F3CFC0
:1034A0008091A0028111C1CF08958091A102813A3B
:1034B000D9F78091A5029091A602892BA9F7809156
:1034C000E800877F8093E8008091E80080FFFCCFD0
:1034D000809125018093F1008091E8008E77BCCF28
:1034E0008091A102813201F78091A5029091A602FC
:1034F000892BD1F68091E800877F8093E8000E94B5
:10350000A61C8091A302809325010E94C6060895FF
:103510008091A102813241F68091E800877F8093FB
:10352000E8000E94A61C8091A40280937B0208956B
:103530008091A102813A09F0B7CF8091E800877F9E
:103540008093E8008091E80080FFFCCF80917B02AF
:10355000C1CF84B7877F84BF0FB6F894A8958091B8
:103560006000886180936000109260000FBE80E868
:1035700090E00FB6F89480936100909361000FBEC5
:103580000E94A91608950E94F61C0E94531DE2EEA7
:10359000F0E080818460808378940E94D21F089537
:1035A0008BE191E00E94B01508958091A0028530D2
:1035B00031F48091A002853019F00E9423170895FC
:1035C0000E94F81680919E02882399F30E94B616F5
:1035D000882379F30E94501B0E94C606EACF089503
:1035E0009A014091A7025091A8020E94F81A0895EA
:1035F000492F55274330510519F168F441305105E1
:1036000009F444C04230510509F445C090E080E01F
:1036100050E040E025C04132510549F142325105A8
:10362000A9F784E490E04FE853E061157105C1F01B
:1036300082E390E04DE553E06130710589F0E6CF1B
:1036400099278130910581F0009729F00297F1F6D2
:10365000ECEDF2E002C0ECE0F3E0849190E0AF0129
:10366000F901518340830895EEEFF2E0F6CF89E04F
:1036700090E042E253E06115710591F389E090E03A
:103680004BE353E06130710559F3C0CF82E190E024
:103690004BE453E0E5CF8BE390E040E153E0E0CF33
:1036A00080E189BD82E189BD09B400FEFDCF809132
:1036B000D8008F7D8093D8008091E0008260809355
:1036C000E0008091E00081FDFCCF0895AF92BF92B1
:1036D000CF92DF92FF920F931F93CF93DF936C01F2
:1036E000EB018A010E94C51CF82E811123C001152F
:1036F000110539F0F80180819181C81BD90BC80EE2
:10370000D91EB12CA12C2097A9F08091E80085FD4D
:1037100022C08091E8008E778093E80001151105A2
:10372000A1F0F80180819181A80EB91EB182A0821A
:1037300085E0F82E8F2DDF91CF911F910F91FF9093
:10374000DF90CF90BF90AF9008950E94C51C882352
:10375000D1F2F82EEFCFF60181916F018093F10045
:103760002197FFEFAF1ABF0ACECFFC018091A702CD
:103770009091A80286179707A0F06115710529F4AA
:103780009091E8009E779093E80090E061157105B4
:1037900051F4911108C08091E80082FF34C080E0AC
:1037A0000895BC01F2CF8091A0028823C1F1853039
:1037B000C1F18091E80083FD30C08091E80082FD76
:1037C000EACF8091E80080FFE1CF8091F300209163
:1037D000F200382F6115710519F02830310558F0C5
:1037E00091E02830310509F090E02091E8002E7733
:1037F0002093E800CBCF81918093F1006150710953
:103800002F5F3F4FE7CF8091A002882341F08530A2
:1038100041F08091E80083FFBECF81E0089582E00F
:10382000089583E00895FC018091A7029091A80279
:1038300086179707A0F06115710529F48091E800BB
:103840008E778093E80090E06115710551F4911135
:1038500008C08091E80082FF35C080E00895BC0177
:10386000F2CF8091A0028823C9F18530C9F18091FF
:10387000E80083FD31C08091E80082FDEACF8091AD
:10388000E80080FFE1CF8091F3002091F200382F13
:103890006115710519F02830310558F091E0283094
:1038A000310509F090E08091E8008E778093E80080
:1038B000CBCF84918093F1003196615071092F5FD5
:1038C0003F4FE6CF8091A002882341F0853041F040
:1038D0008091E80083FFBDCF81E0089582E00895E4
:1038E00083E00895982F973028F08F708093E90037
:1038F00081E008959093E900242F762F50E09817E7
:1039000031F07091EC002091ED005091F00021FD1C
:1039100002C09F5FE8CF3091EB003E7F3093EB0019
:103920003091ED003D7F3093ED003091EB00316040
:103930003093EB007093EC002093ED005093F00077
:103940002091EE0027FDE5CF80E008958091A1024F
:1039500087FF13C08091E80082FF06C08091E800D5
:103960008B778093E80004C08091A0028111F2CF90
:1039700008958091A0028823D9F38091E80080FF08
:10398000F8CF8091E8008E77ECCF2091E400309161
:10399000E50095E6A9012091EC00822F817020FFBF
:1039A00006C08091E80080FF06C080E00895209165
:1039B000E80022FD1AC08091A002882389F085309A
:1039C00089F08091EB0085FD0FC02091E4003091DB
:1039D000E50042175307F9F29150E1F684E00895AB
:1039E00082E0089583E0089581E008950E94651DB6
:1039F0000E946D1DE0EEF0E0808181608083E8ED43
:103A0000F0E080818F77808319BCA7EDB0E08C91C6
:103A10008E7F8C9380818F7E808310929F02089589
:103A20000F931F93CF93DF930E94651D0E946D1D1E
:103A3000C8EDD0E088818F7788838881806888830B
:103A400088818F7D888319BC1092A00210929C02FD
:103A500010929E0210929D0200EE10E0F80180810B
:103A60008B7F808388818160888342E060E080E092
:103A70000E94721CE1EEF0E080818E7F8083E2EE96
:103A8000F0E0808181608083808188608083F8019C
:103A900080818E7F8083888180618883DF91CF9150
:103AA0001F910F910895E8EDF0E080818F7E808373
:103AB000E7EDF0E080818160808384E082BF81E077
:103AC00080939F020E94101D0895E8EDF0E0808130
:103AD0008E7F80831092E20008951092DA00109297
:103AE000E10008951F920F920FB60F9211242F93A9
:103AF0003F934F935F936F937F938F939F93AF9376
:103B0000BF93EF93FF938091E10082FF0BC0809100
:103B1000E20082FF07C08091E1008B7F8093E1008B
:103B20000E94D11F8091DA0080FF19C08091D800D7
:103B300080FF15C08091DA008E7F8093DA0080913B
:103B4000D90080FF96C080E189BD82E189BD09B4BA
:103B500000FEFDCF81E08093A0020E94B219809107
:103B6000E10080FF19C08091E20080FF15C08091C4
:103B7000E2008E7F8093E2008091E200806180937A
:103B8000E2008091D80080628093D80019BC85E063
:103B90008093A0020E94C6198091E10084FF2BC08F
:103BA0008091E20084FF27C080E189BD82E189BD68
:103BB00089B5982F917080FFFBCF8091D8008F7DC1
:103BC0008093D8008091E1008F7E8093E100809106
:103BD000E2008F7E8093E2008091E200816080931A
:103BE000E20080919C02882309F449C084E080931C
:103BF000A0020E94CF198091E10083FF29C080912B
:103C0000E20083FF25C08091E100877F8093E1007F
:103C100082E08093A00210929C028091E1008E7F4E
:103C20008093E1008091E2008E7F8093E20080919A
:103C3000E20080618093E20042E060E080E00E9468
:103C4000721C8091F00088608093F0000E94C3197C
:103C5000FF91EF91BF91AF919F918F917F916F9164
:103C60005F914F913F912F910F900FBE0F901F903A
:103C7000189519BC1092A0020E94C01970CF8091B3
:103C8000E30087FD93E09093A002B3CF1F920F92C1
:103C90000FB60F9211242F933F934F935F936F931F
:103CA0007F938F939F93AF93BF93CF93DF93EF93C4
:103CB000FF93D091E900DF708091EC00C82FC170B4
:103CC00080FDC0E81092E9008091F000877F80932A
:103CD000F00078940E948A1E1092E9008091F00012
:103CE00088608093F000CD2BCF70C093E900FF91E6
:103CF000EF91DF91CF91BF91AF919F918F917F9184
:103D00006F915F914F913F912F910F900FBE0F9048
:103D10001F901895AAE2B0E0E0E9FEE10C941420AF
:103D200081EA92E02091F100FC012193CF01F2E0C1
:103D3000893A9F07B9F70E94EF198091E80083FF45
:103D40001EC18091A1029091A2029A3008F017C181
:103D5000E92FF0E0E552FF4D0C94FF1F803899F0F9
:103D6000823809F00CC18091A5028F70873008F06D
:103D700006C18093E9008091EB0085FB882780F9DC
:103D80001092E90006C080919D0290919E029111CF
:103D900082609091E800977F9093E8008093F10013
:103DA0001092F1008091E8008E77E5C0882309F435
:103DB000D3C0823009F0E3C08091A3028111D6C044
:103DC0008091A5028F702FEF280F263008F0D7C002
:103DD0008093E9002091EB0020FFC8C0933031F4BC
:103DE0008091EB0080628093EB00C0C09091EB006B
:103DF00090619093EB0021E030E001C0220F8A95A2
:103E0000EAF72093EA001092EA008091EB008860C4
:103E1000EACF8111B4C01091A3021F778091E30013
:103E20008078812B8093E3008091E800877F8093E6
:103E3000E8000E94A61C8091E80080FFFCCF8091E2
:103E4000E30080688093E30082E0111183E08093B7
:103E5000A00295C08058823008F091C08091A302E2
:103E60009091A4028C3D23E09207A1F583E08A8320
:103E70008AE289834FB7F894DE01139620E03EE092
:103E800051E2E32FF0E050935700E49120FF03C08C
:103E9000E295EF703F5FEF708E2F90E0EA30C0F058
:103EA000C7968D939D932F5F243159F74FBF809113
:103EB000E800877F8093E8006AE270E0CE01019617
:103EC0000E94B51B8091E8008B778093E80057C073
:103ED000C096E7CF6091A5027091A602AE014F5F38
:103EE0005F4F0E94F01ABC01892B09F448C09091E1
:103EF000E800977F9093E80089819A810E94131CC3
:103F0000E1CF8038E1F58091E800877F8093E80079
:103F100080919C028093F10045CF811130C0909137
:103F2000A302923060F58091E800877F8093E800DB
:103F300090939C020E94A61C80919C02882311F001
:103F400084E005C08091E30087FDFACF81E0809393
:103F5000A0020E94DA1913C08091A302813079F483
:103F600081E0933009F080E080939E021092E90096
:103F70008091E800877F8093E8000E94A61C8091D2
:103F8000E80083FF0AC08091E800877F8093E80003
:103F90008091EB0080628093EB00AA96E3E00C94A2
:103FA00030200895CF938091A0028823A1F0C09182
:103FB000E900CF709091EC00892F817090FD80E82E
:103FC000C82B1092E9008091E80083FD0E948A1EB0
:103FD000CF70C093E900CF9108950E94F61C109213
:103FE000A0020895E8EDF0E08081806180838AE19D
:103FF0008A95F1F700C08091D90081700895EE0F85
:10400000FF1F0590F491E02D09942F923F924F925B
:104010005F926F927F928F929F92AF92BF92CF9258
:10402000DF92EF92FF920F931F93CF93DF93CDB761
:10403000DEB7CA1BDB0B0FB6F894DEBF0FBECDBFD9
:1040400009942A88398848885F846E847D848C84AA
:104050009B84AA84B984C884DF80EE80FD800C81B3
:104060001B81AA81B981CE0FD11D0FB6F894DEBF96
:104070000FBECDBFED010895FB01DC0104C08D91A1
:104080000190801921F441505040C8F7881B990BCA
:104090000895FB01DC0102C001900D924150504097
:1040A000D8F70895F999FECF92BD81BDF89A992766
:1040B00080B50895A8E1B0E042E050E00C9496206D
:1040C000DC01A40FB51F4150504048F0CB01840FD4
:1040D000951F2E910E94712041505040D0F70895B5
:1040E000262FF999FECF92BD81BDF89A019700B4B1
:1040F000021639F01FBA20BD0FB6F894FA9AF99A51
:104100000FBE08950396272F0E9471200E947020F1
:10411000252F0E947120242F0C9471200196272FA7
:104120000E9471200C947020DC01CB01FC01F999F4
:10413000FECF06C0F2BDE1BDF89A319600B40D92F3
:1041400041505040B8F70895F894FFCFCB04CB040A
:104150001B051B058005FA04FA04FA049C050D06EC
:104160001C061C068414F8148C1456145A1490144B
:104170005E149414A0146A14F1146E14A41472142E
:10418000A814D0147614AC14D7147C14B214BA1436
:104190006214981466149C148014B614C614E014A7
:1041A000EF1450148814FF1489158F157815831592
:1041B00095159B15A115AE1ED61EBF1FD61EBF1F7F
:0A41C000091F2A1FBF1F811F8D1F5A
:1041CA0022020100000001000000000000000501B9
:1041DA0000000004060000000000006E199E19721B
:1041EA00197119971901E200E900EA00B500B60051
:1041FA00B700CD008301CC008A019201940121020B
:10420A00230224022502260227022A02B300B4004E
:10421A006F0070009F01CB019F02A002818283E29E
:10422A0000E900EA00B500B600B700CD008301CC72
:10423A00008A019201940121022302240225022606
:10424A000227022A02B300B4006F0070009F01CB5C
:10425A00019F02A002818283F4F5F6F7313332948A
:06426A0097C634354A023C
:00000001FF
